:0200000420409A
:100000009721C05F9381818B97220000938282B6F3
:10001000739052301701C0DF1301C1FE9700C0DF9B
:10002000938040FE638300008290732540F18145F8
:1000300001460D209700C0DF9380C0FC6383000061
:100040008290970200009382C20073905230032383
:100050000000F5BF06849721C05F9381218613813C
:1000600041C7137101FF01E19752000093824223BF
:100070001703C05F130303F99713C05F9383C3078C
:10008000638C6200635A730003A50200910223206F
:10009000A3001103E34A73FE9752000093824220AB
:1000A0001703C05F130303F69703C05F938383F5C1
:1000B000638C6200635A730003A50200910223203F
:1000C000A3001103E34A73FE1713C05F1303C302B7
:1000D0009713C05F938303066357730023200300C5
:1000E0001103E34D73FE11C202961745000013057C
:1000F000C544EF402041EF40A047F32710303707B9
:10010000010013078702F98F99C7F32700300967A9
:10011000D98F739007300545975500009385451694
:100120001756000013060616A128EF40003FA280D4
:0401300082808280C7
:10018000797106D622D40018232604FE31A08327D5
:10019000C4FE85072326F4FE0325C4FEEF101023BA
:1001A0002324A4FE832784FE91E70327C4FEA547EA
:1001B000E3DFE7FC832784FE81EBB747402013850C
:1001C0004777C120854789A0E1679385076A0325A2
:1001D00084FEEF10101A232E04FC834704FEF99BC3
:1001E0002300F4FE834704FEF59B2300F4FE8347BF
:1001F00004FEED9B2300F4FE834704FEDD9B2300F9
:10020000F4FE232204FE81473E85B250225445610C
:100210008280397122DC2A842E852EC606DE8D2846
:1002200097470000938707573ED485473ED61C105A
:10023000B2453ECA89473ECC1C5C2AD205052ED069
:100240002ACE0C4489E722852EC60D22B24583971B
:10025000C50013972701634B07008966F851D58FB6
:100260002396F500F977FD17F98FFCD15008228508
:10027000192CFD5711E1A947F25062543E852161C6
:1002800082809717C05F938767E3AA85884351B739
:10029000AA87850703C7F7FF6DFF3385A7407D1544
:1002A000828001458280411122C406C62A84231619
:1002B000B5002317C50023200500232205002324B1
:1002C00005002322050623280500232A0500232CE8
:1002D0000500214681451305C505EF00D037971766
:1002E0000000938707FE1CD0971700009387C70074
:1002F0005CD097170000938707051CD49717000060
:100300009387C70740CC5CD4B2402244410182802D
:10031000971500009385251B75A101458280411129
:1003200026C2130680069384F5FFB384C4024AC034
:100330002E8922C406C693854407DD292A8401CD6F
:100340002320050023222501310508C413868406D5
:100350008145EF0050302285B24022449244024948
:10036000410182809387818388435DB71C5DA9E743
:10037000411106C622C4970700009387A7F95CDDE8
:100380008D472322F52E9307C52E2A842324F52E8C
:100390002320052E48410146914531370844054642
:1003A000A545113748440946C945F53D85471CDC3C
:1003B000B24022444101828082804111938781832F
:1003C00026C284434AC006C69C5C22C42A8999E39B
:1003D0002685693F9384042E8044DC40FD1763D654
:1003E00007009C40B9CF8440C5BF0317C40039E75C
:1003F000C17785072322040623200400232204005A
:10040000232404005CC423280400232A0400232C92
:100410000400214681451305C405EF00D02323289D
:100420000402232A04022322040423240404228530
:10043000B24022449244024941018280130484065E
:1004400071BF91454A85E13D88C051FDB1472320E8
:10045000F9000144E9BF8280828082808280971700
:10046000C05F9387A7C58843970500009385A5E3E0
:10047000CDAC9717C05F938767C48843970500008A
:100480009385E5E9F9AC1C4681E781473E8582808A
:1004900083D7C5005D71A2C4CAC056DA86C6A6C29B
:1004A0004EDE52DC5AD85ED662D466D26AD06ECEA8
:1004B000A18BB28A2E842A89D9CF9C49C9CF835770
:1004C000C40003AA0A0013F727006318070E858BE0
:1004D00063800716814B0145014B814963850924DF
:1004E00001ED4E86A9455A85EF005005938B190002
:1004F00001C50505B30B65415E8C63F379014E8C34
:1005000008401C48544863F7A7220444B69463D3B8
:100510008423DA852686EF00700F1C40A2854A8569
:10052000A6971CC0EF10C018631C050EB38B9B4030
:10053000054563970B00A2854A85EF1060176DE1B2
:1005400083A78A00269BB3899940B384974023A44C
:100550009A00C9F491A0A2854A85EF00B065FD57C5
:1005600039DD25A883290A0083244A00210AFDD801
:10057000A68663739B00DA865C504C4C4E864A8597
:100580008297635FA00883A78A00AA99898C338524
:10059000A74023A4AA0061FD8147B64026449644A3
:1005A0000649F259625AD25A425BB25B225C925CB3
:1005B000025DF24D3E8561618280370B008081498A
:1005C0008144134B0BC065B7032B0A0083244A00F8
:1005D000210AFDD80357C4001C4408409376072025
:1005E0006387060E63E8F40893760748C1C6832D37
:1005F00044010C48B38DBC03B309B540938719007F
:10060000A697B3CDAD0363F3FD00BE8D137707400E
:1006100051CFEE854A85292C1DE5B1472320F900ED
:100620008357C40093E707042316F400FD57B5B7BA
:10063000B70B008013CCEBFF014B814493CBFBFF46
:100640008D4C094D79B70C484E862AC62927035789
:10065000C400B2471377F7B7136707082316E400FF
:100660001CC8232AB401CE97B38D3D411CC023245E
:10067000B401A687A68963F3F400A68708403E86E6
:10068000DA853EC661271844B2471D8F18C418404A
:10069000BA971CC083A78A004E9BB3843441B389A8
:1006A000374123A43A01E39609F2FDB56E864A85E7
:1006B000EF003005AA874DF50C484A85EF10001170
:1006C0008357C40093F7F7F72316F400B9B7184817
:1006D0006365A700544863F7D402BE8963F3F4004E
:1006E000A6894E86DA851D271C441840B3873741FA
:1006F0004E971CC418C0D9FFA2854A85EF00507BD5
:1007000051D939BFA68763739C00DE87B3C7D70270
:1007100058504C4C5A864A85B386D7020297AA890C
:10072000E34AA0F6F5BD032B0A0083294A000145E0
:10073000210A6DB3634BDC005C504C4C5A864A85F1
:100740008297AA84E344A0DEE1BD6286DA857D2D2E
:100750001C44E284B38787411CC41C40E2971CC040
:10076000F1B3797122D44AD052CC56CA06D626D2D9
:100770004ECE1304052E0149054AFD5A19E8B25020
:1007800022544A8592540259F249624AD24A45613A
:100790008280044483294400FD1963D40900004089
:1007A000F1BF83D7C400637CFA008397E4006388B9
:1007B000570126852EC68295B2453369A9009384D8
:1007C0008406D9BF797122D44AD052CC56CA5AC8AD
:1007D0005EC606D626D24ECE2A8AAE8A1304052ECF
:1007E0000149054BFD5B09ECB25022544A859254F5
:1007F0000259F249624AD24A424BB24B4561828069
:10080000044483294400FD1963D409000040E1BF7A
:1008100083D7C400637BFB008397E4006387770181
:10082000A6855285829A3369A90093848406E1BF24
:10083000797106D622D426D24AD04ECE52CC56CA90
:100840005AC85EC662C466C29387B50059476376CC
:10085000F70293F487FF63D30402B1471CC101453B
:10086000B250225492540259F249624AD24A424B3F
:10087000B24B224C924C45618280C144E3EFB4FC00
:100880002A89B52D9307701F9709C05F938909BA0C
:1008900063EC9702138784004E974043930687FFCB
:1008A00093D734006316D40040478907630C87044C
:1008B0005C4058441444F19BA297D8C614C7D8434F
:1008C00013671700D8C351A013D794009307F00300
:1008D00001CB914763E0E70893D7640093878703D0
:1008E000138717000E074E974043930587FF3D453A
:1008F0006309B4005840719B33069740635FC50895
:10090000FD17850703A409019705C05F938585B28C
:10091000630CB40E5840BD46719B3306974063D9B3
:10092000C60893E714005CC0B30694009707C05F45
:1009300023A8D7B09707C05F23A2D7B0936716004C
:10094000CCC68CC6DCC2229710C34A85552B130532
:10095000840039B7D14763E5E7009307B70549B786
:100960009307400563E7E70093D7C4009387E70642
:1009700085BF9307401563E7E70093D7F40093879B
:100980007707B9BF930640559307E007E3EAE6F41B
:1009900093D724019387C707A1B75444634806003F
:1009A0001C44D4C79CC6B307E40011BF368489B782
:1009B0009706C05F23A6B6A89706C05F23A0B6A877
:1009C0006348060022975C4393E717005CC3B5BFFA
:1009D0009306F01F03A8490063E8E6140D8313563D
:1009E000274085460507B396C6000E074E97B3E627
:1009F00006011706C05F232DD6A21443130687FFF6
:100A000050C414C400C3C0C613D7274005433313D2
:100A1000E30003A74900636E6704B376670099E6B5
:100A2000F19B0603B37667009107E5DE3D4E939692
:100A30003700CE9636883E850324C8006313041918
:100A4000050513773500210865FB13F73700631799
:100A5000071C03A749009347F3FFF98F1707C05FEF
:100A60002328F79C03A74900060363646700631308
:100A7000031C83AB890003A44B00937AC4FF63E794
:100A80009A0033879A40BD4763CEE7289707C05F37
:100A9000938707671707C05F130787628043144374
:100AA000FD57338C5B0126943A8A6397F61841040C
:100AB000A2854A85EF00807DFD572A8B6308F520CB
:100AC0006374850163943B21970CC05F938C8C63A6
:100AD00003A70C0022979707C05F23A5E762631363
:100AE0006C1793174C01639F071483A789005694D2
:100AF00013641400C0C31707C05F1307276083A7E0
:100B00000C0018436376F7001707C05F2328F75ED1
:100B10001707C05F1307475E18436379F71A170773
:100B2000C05F232BF75C5DA213569700914663EEDE
:100B3000C6029356670093868603138616000E0638
:100B40004E96130586FF10426317C5060547898632
:100B5000B316D700B3E606011707C05F232AD78C68
:100B600048C410C400C540C645B5D14663E5C600BB
:100B70009306B605D9B79306400563E7C6009356BA
:100B8000C7009386E60655BF9306401563E7C60087
:100B90009356F700938676074DB713054055930695
:100BA000E007E36CC5F8935627019386C60771B733
:100BB00010466306C5005442F19AE36BD7FE4846DF
:100BC00045B758405044719BB3089740635B1E0380
:100BD00093E714005CC01C44B30694002297D0C76E
:100BE0001CC69707C05F23ADD7849707C05F23A7B4
:100BF000D78493E71800CCC68CC6DCC2232017012B
:100C0000A9B363CB080022975C4393E717005CC34A
:100C10001C44D0C71CC615BB32840DB5E1169846DE
:100C2000FD17E304D7E23DBD91070603B3766700E5
:100C3000E5DEF5BBAA87DDBF05673D073A94FD7782
:100C40007D8CBDB583260A00FD57639FF608970784
:100C5000C05F23A76747137C7B00814763060C00B6
:100C6000A147B38787413E9B0565338AA7005A9405
:100C70007D15B377A400330AFA40337AAA00D285EF
:100C80004A852925FD576319F500228563050C0067
:100C900013058CFF2295014A83A70C00330565419B
:100CA000D2972A9A1707C05F232EF744136A1A00B7
:100CB00097F7BF5F23A0677923224B01E38D3BE3C6
:100CC0003D47636B570385472322FB0083A78900B9
:100CD000DC43F19B3387974063E59700BD4763C3CF
:100CE000E7044A85312CA5BEB3078B41BA97170795
:100CF000C05F2329F74085B783A74B0013844AFFC1
:100D00006198858BC18F23A2FB009546B3878B002A
:100D1000D4C394C7E37187DE93858B004A85EF00C7
:100D2000F02AD1BB03A4890093E714005CC0B30789
:100D3000940097F6BF5F23AFF66E59B693F5F50FA3
:100D40002A966314C5000145828083470500E38D20
:100D5000B7FE0505FDB7B3C7A5008D8B3307C500EA
:100D600081E78D4763EEC700AA876370E50A83C6F3
:100D7000050085078505A38FD7FEE3EAE7FE82809D
:100D800093763500AA8791CA83C605008507850535
:100D9000A38FD7FE93F63700FDB79376C7FF138670
:100DA00006FE63F0C70683A3050083A2450083AF58
:100DB000850003AFC50083AE050103AE450103A363
:100DC000850183A8C5019385450223A0770003A868
:100DD000C5FF23A2570023A4F70123A6E70123A8F8
:100DE000D70123AAC70123AC670023AE170193875D
:100DF000470223AE07FF75B790419107910523AED7
:100E0000C7FEE3EBD7FEE3E4E7F6828063F3A504D5
:100E1000B386C500637FD5029345F6FF8147FD1772
:100E20006393F50082803387F60003480700338719
:100E3000C7002A9723000701DDB73387F5008346F3
:100E400007003307F50085072300D700E317F6FEF8
:100E500082808147E5BF3D432A876373C30293774E
:100E6000F700BDEFADE5937606FF3D8ABA960CC359
:100E70004CC30CC74CC74107E36BD7FE11E282801D
:100E8000B306C3408A069702000096966780A600C4
:100E90002307B700A306B7002306B700A305B700D2
:100EA0002305B700A304B7002304B700A303B700CA
:100EB0002303B700A302B7002302B700A301B700C2
:100EC0002301B700A300B7002300B700828093F589
:100ED000F50F93968500D58D93960501D58D61B755
:100EE000939627009702000096968682E78086FAFE
:100EF0009680C1171D8F3E96E374C3F8A5B7828014
:100F00008280397122DC06DE2E8426DA4AD84ED65B
:100F100052D456D25AD05ECEB28501EC6254F25011
:100F2000D2544259B259225A925A025BF24B216171
:100F300001B2AA8A32C6E137B245D9479389B500D2
:100F400063F6370313FB89FF63530B02B14723A0FA
:100F5000FA00014AF25062545285D2544259B259B1
:100F6000225A925A025BF24B21618280414BE36F1D
:100F7000BBFC8326C4FF930B84FF13F9C6FF635C9D
:100F8000692F17F7BF5F1307674A1047B3872B0115
:100F9000D8436308F6001375E7FF3E95484105897D
:100FA00029E9719BB309E900631DF60213050B01E2
:100FB00063C3A904DA9BB389694197F7BF5F23AB89
:100FC000774793E9190023A23B018329C4FF568583
:100FD000228A93F91900B3E96901232E34FF0D37F2
:100FE00095BF63CA6901D8479C47D8C71CC7DE8430
:100FF00011AA01478147858A6393061E832484FFD3
:10100000B3849B4003AA4400137ACAFF4A9A638FB1
:101010000714B30947016312F60A93070B0163C76C
:10102000F9149844DC441306C9FF138A84005CC792
:1010300098C713074002636EC706CD46D28763FC8C
:10104000C6001C409CC45C40DCC4ED4763E0C704A0
:10105000210493870401184098C35840D8C318440A
:1010600098C7B3876401B389694117F7BF5F23232A
:10107000F73C93E9190023A23701DC40858BB3E9E3
:10108000670123A234015685A53DE9B51C449CC8DF
:101090005C44DCC86306E60041049387840165BFB5
:1010A0001C4861049CCC0327C4FF93870402D8CC5E
:1010B0005DB7A2855285993B6DB763C9690BD84767
:1010C0009C471306C9FF13858400D8C71CC79844E2
:1010D000DC445CC798C79307400263E6C7084D47E6
:1010E000637CC700184098C45840D8C46D476369F2
:1010F000C7042104138504011C401CC15C405CC171
:101100001C441CC5D840B38669413D46058BB38756
:1011100034016374D616B369EB0023A23401B3859E
:10112000640193E61600D4C1D843A1055685136720
:101130001700D8C3612D5685E133138A840019BD89
:10114000184498C85844D8C86306F600410413856B
:1011500084015DB71C481385040261049CCC83277D
:10116000C4FFDCCC51BFA285553169BF63496A0712
:10117000DC4498441306C9FF138584005CC798C7F4
:101180009307400263EAC7044D47637CC7001840D9
:1011900098C45840D8C46D47636DC70021041385B7
:1011A00004011C401CC15C405CC11C441CC5D289AC
:1011B00091BF184498C85844D8C86306F600410443
:1011C00013858401F9BF1C481385040261049CCC7B
:1011D0008327C4FFDCCCF1B7A2850D39C9BF568582
:1011E000EFF00FE52A8AE30005EA8327C4FF13071F
:1011F00085FFF99BDE976398E7008329C5FF93F984
:10120000C9FFCA99EDB31306C9FF9307400263E112
:10121000C7064D47637BC704184018C1584058C1E2
:101220006D476360C702130784009307850014436A
:1012300094C35443D4C3184798C7A28556857923CD
:1012400099B5184418C5584458C56307F6001307E4
:10125000040193070501E1BF1C48130784011CC961
:1012600054489307850154C9D9B7AA872287C1B7C3
:10127000A285693ED9B7CA899DBBB3E9E90023A21B
:101280003401D84313671700D8C375B5411122C480
:101290002A842E859707C05F23AA07E806C6EF3089
:1012A0004019FD576319F5009707C05F938707E85A
:1012B0009C4391C31CC0B240224441018280411131
:1012C00022C42E848395E50006C6EF00B000634972
:1012D00005003C48AA973CC8B240224441018280A4
:1012E0008357C4007D777D17F98F2316F400EDB77F
:1012F0000145828083D7C500011122CC26CA4AC885
:101300004EC606CE93F70710AA842E843289B6897A
:1013100091C78395E5008946014649258357C40056
:101320007D777D17F98F2316F4008315E40062445E
:10133000F240CE864A86B24942492685D2440561AA
:101340003DA8411122C42E848395E50006C6B92527
:10135000FD570357C400631BF500FD77FD17F98F98
:101360002316F400B2402244410182808567D98F60
:101370002316F40028C8FDB78395E50011AA411192
:1013800022C42A842E85B28536869707C05F23AF94
:1013900007D806C6EF302010FD576319F5009707F0
:1013A000C05F9387A7D89C4391C31CC0B24022441E
:1013B0004101828041119707C05F938727D026C2E1
:1013C000AA84884322C406C62E8409C51C5D99E3FD
:1013D000EFE0DFF90317C40093170701C18393F609
:1013E0008700A1EE93F6070189EEA5479CC013671D
:1013F00007042316E4007D55B24022449244410183
:101400008280918B8DC70C5889C99307040463842B
:10141000F5002685652E232804028357C400232265
:10142000040093F7B7FD2316F4001C481CC0835733
:10143000C40093E787002316F4001C4881EF83570C
:10144000C4001307002093F707286385E700A285EF
:101450002685D5238357C40013F7170005C75C48BA
:1014600023240400B307F0401CCC1C480145C9F7F5
:101470008317C40013F7070841D393E70704231623
:10148000F40095BF898B014791E3584818C4F1BF18
:10149000411122C42A842E859707C05F23A807C85C
:1014A00006C6EF20506DFD576319F5009707C05F22
:1014B0009387C7C79C4391C31CC0B24022444101DB
:1014C0008280411106C622C426C24AC089E9014968
:1014D000B24022444A859244024941018280AA8452
:1014E0002E8409C51C5D99E3EFE05FE88317C40013
:1014F000F9DFA285268585205C542A8999C74C4C42
:1015000026858297635305007D598357C40093F75E
:10151000070881C70C482685552C0C5889C99307A4
:1015200004046384F50026855524232804026C40B6
:1015300089C52685612C23220404EFE0DFF1231600
:101540000400EFE07FF169B79707C05F938707B7A3
:10155000AA858843BDB78397C500011122CC139794
:101560000701418326CA06CE4AC84EC69376870035
:10157000AA842E84E5EE056713070780D98FD8412A
:101580002396F500634DE000D85D634AE000014515
:10159000F2406244D2444249B24905618280185403
:1015A0007DD703A904009396370123A0040063D5D7
:1015B000060830488357C400918B99C75C401D8E44
:1015C0001C5899C35C5C1D8E1C544C4C814626856E
:1015D0008297FD578356C400631DF5009C407547F4
:1015E0006360F7083707402005073357F700058B7E
:1015F00025CBFD779387F77F1848F58FC207C18702
:1016000018C02316F40023220400139737016358EF
:101610000700FD576314F5009C4091E328C80C585F
:1016200023A02401ADD5930704046384F500268527
:10163000712A23280402A1BF4C4C01468546268509
:101640000297FD572A86E317F5F69C40A5D7754704
:101650006385E70059476394E70423A0240105BF8D
:1016600093E706042316F4007D551DB783A90501F1
:10167000E38F09F003A905000D8B23A03501330981
:101680003941814711E3DC491CC4E35220F15C502D
:101690004C4CCA864E86268582976347A0008357A6
:1016A000C40093E707047DBFAA993309A940F1BF9D
:1016B000011122CC06CE2A8419C51C5D89E72EC6ED
:1016C000EFE0DFCAB2458397C50091C72285624427
:1016D000F240056149B5F2406244014505618280EE
:1016E000AA8511E993878183884397050000938534
:1016F00065FC6FF02F8D9707C05F9387279C884309
:1017000045BF011122CC26CA4AC84EC62E8406CE39
:101710002A8997F9BF5F938969D1EFF04FFE83A7BC
:1017200089000567C4439307F7FE33848740F19827
:10173000269431807D143204635DE4004A85EFF025
:101740002FFC0145F2406244D2444249B24905614E
:10175000828081454A851D3E83A78900A697E31FA5
:10176000F5FCB30580404A851536FD57631AF5022E
:1017700081454A85213E03A78900BD46B307E54060
:10178000E3DEF6FA9706C05F93868693944293E76A
:1017900017005CC3158D9706C05F23A5A69679BF79
:1017A00083A78900818C93E41400C4C39707C05FAA
:1017B000938747959C434A85338487409707C05F4A
:1017C00023A28794EFF0CFF30545ADBF6387051CD7
:1017D000411122C426C22A84AE8406C6EFF02FF23D
:1017E00083A5C4FF938684FF17F5BF5F130505C467
:1017F00093F7E5FF3386F600584203288500858974
:10180000719B6318C804BA9789E903A784FF998E6E
:101810009046BA97D84658C610C713E71700D8C2E3
:1018200017F7BF5F2328D7C01707C05F1307878943
:10183000184363E9E7009707C05F9387678C8C4381
:101840002285C13522852244B240924441016FF085
:101850002FEB58C2014895E183A584FF97F8BF5F3D
:10186000938848BD8D8EAE978C466385150983A8F5
:10187000C60023A6150123A4B800B305E600CC4199
:10188000858995E5BA9718466318080697F5BF5FEE
:10189000938545BA6312B70617F6BF5F2322D6BAFF
:1018A00017F6BF5F232CD6B8D8C698C6054813E7ED
:1018B0001700D8C23387F6001CC3E31508F81307D6
:1018C000F01F636FF7028D8313D627400547331748
:1018D000C700504185078E07518FAA9717F6BF5F43
:1018E0002328E6B49843138687FFD0C698C694C3CE
:1018F00054C789BF054851B7504650C718C645BFA1
:1019000013D697001147636EC70213D767001307FA
:101910008703130617000E062A96930586FF1042CA
:101920006397C506854709873397E7005C415D8F5C
:1019300097F7BF5F23AEE7AECCC690C694C554C63A
:1019400011B751476365C7001307B605D9B7130729
:1019500040056367C70013D7C7001307E70655BFE5
:10196000130740156367C70013D7F70013077707FE
:101970004DB7930540551307E007E3ECC5F813D7BF
:1019800027011307C70771B710466386C500584281
:10199000719BE3EBE7FE4C4645B78280411122C4C0
:1019A0002A842E85B285368697F7BF5F23A00778F5
:1019B00006C6EF20D022FD576319F50097F7BF5FE9
:1019C0009387C7769C4391C31CC0B2402244410117
:1019D00082801971A6DAAE848395E500A2DC86DEEA
:1019E000328463DC050083D7C40023A0060093F78C
:1019F00007088DEB9307004005A8300836C6312252
:101A0000B246E34205FE7247BD670565F98F7977F7
:101A1000BA9793B717009CC2930700401CC01305E8
:101A2000058029A0930700041CC00145F6506654A8
:101A3000D6540961828083D7C500011122CC06CE1D
:101A400026CA4AC8898B2E8489CF930734041CC0C8
:101A50001CC885475CC8F2406244D24442490561D3
:101A6000828074003000AA84AD37A2452A89268579
:101A7000EFE01FDC01ED8317C40013F7072061FFBF
:101A8000F19B93E727002316F400C1B797F7FFFFF8
:101A900093874788DCDC8357C40008C008C893E7F5
:101AA00007082316F400A2475CC8B24789CF831504
:101AB000E4002685692001C98357C400F19B93E7A0
:101AC00017002316F4008357C4003369F900231666
:101AD000240151B7411122C42A842E85B28536864D
:101AE00097F7BF5F23A4076406C6EF20F011FD57E8
:101AF0006319F50097F7BF5F938747639C4391C3D2
:101B00001CC0B240224441018280411122C42A8477
:101B10002E85B28597F7BF5F23AA076006C6EF2020
:101B2000B007FD576319F50097F7BF5F938707600C
:101B30009C4391C31CC0B2402244410182804111A8
:101B400022C42A842E8597F7BF5F23A1075E06C6AD
:101B5000EF20F006FD576319F50097F7BF5F9387F5
:101B6000E75C9C4391C31CC0B24022444101828087
:101B700001A0011106CE22CC00102326A4FE2324AE
:101B8000B4FE8327C4FE9C439C43832584FE032527
:101B9000C4FE82970100F240624405618280011117
:101BA00006CE22CC00102326A4FE2324B4FE8327D5
:101BB000C4FE9C43DC47832584FE0325C4FE829734
:101BC000AA873E85F240624405618280011122CEDF
:101BD00000102326A4FE8327C4FE6354F00081472F
:101BE00001A80327C4FE0A0793870183BA979C4381
:101BF0003E85724405618280797122D60018232EB9
:101C0000A4FC8327C4FD2326F4FE8327C4FE9C4F37
:101C10003E85325445618280011106CE22CC0010EF
:101C20002326A4FE2324B4FE0325C4FEF137AA878D
:101C30003E85F240624405618280797122D60018A7
:101C4000232EA4FC0325C4FD83288500316571156E
:101C5000469508412326A4FE0325C4FD832885005C
:101C600031656115469508412324A4FE0325C4FD72
:101C70008328850031657115469508418328C4FE87
:101C8000E392A8FC0325C4FE2A83814313180300B2
:101C90008147032584FEAA860147B3E5D700336652
:101CA000E800AE8732883E85C28532544561828025
:101CB000011122CE00102326A4FE2320B4FE2322ED
:101CC000C4FE0327C4FE1447116711073697BA866E
:101CD0007D5798C20327C4FE144711673697BA860A
:101CE000032704FE98C2032744FE935707000148C8
:101CF0000327C4FE14471167110736971CC3814799
:101D00003E85724405618280797106D622D400181E
:101D1000232EA4FC8327C4FD2324F4FE832784FE02
:101D20009C4BA9EF832784FEDC4B2322F4FE232661
:101D300004FE15A8832744FE9C4303A847000327FD
:101D400084FE8327C4FE91078A07BA97DC4783265F
:101D500084FE0146BE85032544FE02988327C4FE07
:101D600085072326F4FE832784FE9C4F0327C4FEA9
:101D7000E342F7FC832784FE054798CB0100B2506D
:101D8000225445618280797106D622D40018232E10
:101D9000A4FC232CB4FC232AC4FC2328D4FCFD5728
:101DA0002326F4FE8327C4FD2324F4FE832784FE28
:101DB000DC4B2322F4FE832744FE85C3832744FEA5
:101DC0009C43DC43832604FD032644FD832584FDD8
:101DD000032544FE82972326A4FE8327C4FE3E8566
:101DE000B250225445618280797106D622D40018FF
:101DF000232EA4FC232CB4FCFD572326F4FE8327BA
:101E0000C4FD2324F4FE832784FD85C7832784FE35
:101E1000DC4B2322F4FE832744FE81CF832744FE3C
:101E20009C439C47832584FD032544FE82972326FB
:101E3000A4FE01003E85B250225445618280797132
:101E400006D622D40018232EA4FC232CB4FCFD5764
:101E50002326F4FE8327C4FD2324F4FE832784FD78
:101E600085C7832784FEDC4B2322F4FE832744FEB0
:101E700081CF832744FE9C43DC47832584FD0325D3
:101E800044FE82972326A4FE01003E85B2502254D0
:101E900045618280797106D622D40018232EA4FCD5
:101EA000232CB4FC232AC4FCFD572326F4FE8327ED
:101EB000C4FD2324F4FE032784FD954763EBE70C60
:101EC000832784FD13972700B75740209387C78740
:101ED000BA979C438287832744FDD5CF032584FE90
:101EE000A93BAA872E88032744FD1CC32322070190
:101EF000232604FE4DA0832744FDC5C3832744FD4C
:101F000003A847009C43BE854286032584FE4D33CB
:101F1000232604FE59A0832744FDD1C3832744FD13
:101F20009C432322F4FE832784FE9C47032744FE20
:101F30000A07BA9723A00700232604FE8DA0832753
:101F400044FDA5C3832744FD9C432322F4FE83273D
:101F500084FE9C47032744FE0A07BA973E878547BD
:101F60001CC3232604FE35A8232604FE832744FD34
:101F70009DCB832744FD9C432322F4FE832784FECC
:101F80009C47032744FE0A07BA979C432326F4FE86
:101F900019A8010011A8010001A8010031A0010049
:101FA00021A0010011A001008327C4FE3E85B2508C
:101FB000225445618280011122CE00102326A4FE06
:101FC0008327C4FE634AF0000327C4FE0A079387F1
:101FD000C182BA979C4311A081473E857244056136
:101FE0008280011122CE0010F32740F12326F4FE57
:101FF0008327C4FE3E85724405618280011122CE92
:102000000010A147F3A707302326F4FE0100724415
:1020100005618280011122CE0010A147F3B707307D
:102020002326F4FE0100724405618280011122CE54
:102030000010A147F3A747302326F4FE01007244A5
:1020400005618280011122CE0010A147F3B747300D
:102050002326F4FE0100724405618280011122CE24
:10206000001093070008F3A747302326F4FE010071
:10207000724405618280011122CE0010930700088E
:10208000F3B747302326F4FE0100724405618280D5
:10209000011122CE0010856793870780F3A7473090
:1020A0002326F4FE0100724405618280011122CED4
:1020B0000010856793870780F3B747302326F4FE27
:1020C0000100724405618280797122D60018232EA6
:1020D000A4FC8327C4FD0547B317F7002326F4FEAD
:1020E0008327C4FEF3A747302324F4FE01003254B3
:1020F00045618280797122D60018232EA4FC8327A3
:10210000C4FD0547B317F7002326F4FE8327C4FE5A
:10211000F3B747302324F4FE010032544561828036
:10212000011106CE22CC00102326A4FE2324B4FEE7
:1021300013054006EF20A01A011106CE22CC001094
:102140002326A4FE2324B4FE1305800CEF202019BF
:10215000797106D622D40018232EA4FC232CB4FCBB
:1021600049352A870A079387C182BA979C43232659
:10217000F4FEF32720342324F4FE8327C4FE95C7FE
:102180008327C4FEDC472322F4FE832784FE93F7D3
:10219000F73F032744FE9387470E8A07BA979C436D
:1021A0008325C4FD0325C4FE82970100B25022544A
:1021B00045618280797106D622D40018232EA4FCB2
:1021C000232CB4FC393DAA873E85F5332326A4FE93
:1021D0000325C4FEEF00007E2320A4FE2322B4FECC
:1021E000832704FE032844FEA9450146B386B700B1
:1021F00036853335F5003307C800B307E5003E8761
:10220000B6873A88BE8542860325C4FEEF0070017A
:102210000100B2502254456182800000000000009D
:1022200000000000000000000000000000000000AE
:10223000000000000000000000000000000000009E
:10224000000000000000000000000000000000008E
:10225000000000000000000000000000000000007E
:10226000000000000000000000000000000000006E
:10227000000000000000000000000000000000005E
:10228000197186DE96DC9ADA9ED8A2D6AAD4AED28E
:10229000B2D0B6CEBACCBECAC2C8C6C6F2C4F6C2A6
:1022A000FAC07EDE0001353B2A870A079387C18288
:1022B000BA979C432326F4FAF32720342324F4FA14
:1022C000F32710342322F4FAF32730342320F4FACE
:1022D000F3275030232EF4F88327C4FAF9C3832759
:1022E000C4FADC47232CF4F8832784FA93F7F73FEA
:1022F000232AF4F8832784FA63D70708032744F9CD
:10230000BD4763D7E7008327C4F993F7F7039DEF31
:10231000832684F9032744F9BA878607BA978E077C
:10232000B69783A7070A2326F4F8832684F90327A0
:1023300044F9BA878607BA978E07B69783A78709A5
:102340008325C4F8032544F98297A1A88327C4F9FB
:1023500013F7F70389476316F704F3277030232830
:10236000F4F8832784F983A7470E2326F4F88327FC
:1023700004F92324F4F8832784F88325C4F803257B
:1023800044F9829739A8032784F9832744F993876E
:10239000470E8A07BA979C43832544F90325C4FA5C
:1023A0008297F650E6525653C653365426559655E4
:1023B0000656F6466647D6474648B648264E964ED7
:1023C000064FF25F0961730020300000000000003A
:1023D00000000000000000000000000000000000FD
:1023E00000000000000000000000000000000000ED
:1023F0000000000000000000797122D60018232E92
:10240000A4FC232CB4FCF32750302326F4FE8327AE
:10241000C4FE93F707FC2326F4FE832784FD2324C0
:10242000F4FE0327C4FD8547630AF7048327C4FD30
:10243000A9CF0327C4FD89476308F7000327C4FD1C
:102440008D476300F70281A8832784FE93E7270066
:10245000739077308327C4FE93E72700739057303B
:102460001DA8832784FE93E7370073907730832776
:10247000C4FE93E737007390573031A8832784FE5A
:1024800093E717007390573039A0832784FEF19BA0
:102490007390573001000100325445618280011170
:1024A00022CE00102326A4FE8327C4FEF517714711
:1024B000636DF70013972700B7574020938747892C
:1024C000BA979C438287854719A0010081473E85C2
:1024D000724405618280797106D622D40018232EB9
:1024E000A4FC232CB4FC232AC4FC232604FE83274B
:1024F000C4FD99E3FD57A5A8032784FDFD4763E6C6
:10250000E706832784FD13972700B757402093875A
:102510008790BA979C438287832744FD99C3F93CEF
:10252000A9A0CD3C99A0832744FD99C3013635A8C5
:10253000113E25A8832744FD99C30D363DA0253EB5
:102540002DA0832744FD99C3A13605A0853631A867
:10255000832744FD91C7832784FD3E85B53629A096
:10256000832784FD3E85793601008327C4FE3E859E
:10257000B250225445618280797122D60018232EF0
:10258000A4FC232CB4FC232AC4FC8327C4FD2326EB
:10259000F4FE032784FDAD4763C2E702832744FDB1
:1025A00091CF0327C4FE832784FD9387470E8A07B4
:1025B000BA97032744FD98C3814711A0FD573E8574
:1025C000325445618280797106D622D40018232EB8
:1025D000A4FC8327C4FD2322F4FE832744FE9C47EA
:1025E000E1EB232604FEB9A0832644FE0327C4FEA4
:1025F000BA878607BA978E07B69723AC0708832653
:1026000044FE0327C4FEBA878607BA978E07B6979B
:1026100023AE0708832644FE0327C4FEBA87860735
:10262000BA978E07B69723A0070A8327C4FE8507AB
:102630002326F4FE0327C4FEFD47E3D7E7FA23244D
:1026400004FE1DA0032744FE832784FE9387470EC4
:102650008A07BA97372740201307071298C38327A2
:1026600084FE85072324F4FE032784FEAD47E3DBC5
:10267000E7FCB7274020938507280145B53BF327A2
:1026800010302320F4FE032704FEC16793878702DE
:10269000F98F99CBF32700302320F4FE032704FEA3
:1026A0008967D98F73900730832744FE054798C701
:1026B0000100B250225445618280797106D622D43D
:1026C0000018232EA4FC232CB4FC232AC4FC2328AA
:1026D000D4FC232604FE8327C4FD2324F4FE032513
:1026E00084FD753BAA8799E3D55739A2832744FD1A
:1026F00085CF832684FE032784FDBA878607BA9791
:102700008E07B697032744FD23ACE708832684FE93
:10271000032784FDBA878607BA978E07B6970327E3
:1027200004FD23A0E70AF9A0832784FDF51771476C
:102730006362F70C13972700B75740209387879859
:10274000BA979C438287832684FE032784FDBA8739
:102750008607BA978E07B6973727402013070715C5
:1027600023ACE708832684FE032784FDBA87860707
:10277000BA978E07B697032704FD23AEE7089DA8F6
:10278000832684FE032784FDBA878607BA978E07BF
:10279000B697372740201307471B23ACE70883264B
:1027A00084FE032784FDBA878607BA978E07B697FB
:1027B000032704FD23AEE70835A8832684FE0327FC
:1027C00084FDBA878607BA978E07B69737274020C9
:1027D0001307871323ACE708832684FE032784FDB1
:1027E000BA878607BA978E07B697032704FD23AEEC
:1027F000E70801008327C4FE3E85B250225445619C
:102800008280011106CE22CC00102326A4FE2324B0
:10281000B4FE832784FE0546BE850325C4FE6539C4
:10282000AA873E85F240624405618280011106CE8E
:1028300022CC00102326A4FE2324B4FE832784FE8A
:102840000146BE850325C4FE7931AA873E85F24044
:10285000624405618280797106D622D40018232E45
:10286000A4FC232CB4FC232AC4FC8327C4FD232608
:10287000F4FE832784FD9DEB832744FD91EBB7276E
:10288000402093850728032544FDBD36814705A0D8
:10289000032744FD8547631BF7008327C4FEC10758
:1028A000BE85032544FD893E814711A0FD573E8525
:1028B000B250225445618280797106D622D4001824
:1028C000232EA4FC232CB4FC8327C4FD2326F4FE72
:1028D000832784FD89EBB72740209385072801458E
:1028E000213E814711A0FD573E85B25022544561DB
:1028F0008280011122CE00102326A4FE2324B4FEE0
:102900002322C4FE81473E8572440561828039716D
:1029100022DE80002326A4FC01438143232464FE9D
:10292000232674FE732500B82322A4FE732500B06D
:102930002320A4FE732500B8232EA4FC832844FE84
:102940000325C4FD6395A802032544FEAA8501461C
:10295000139805008147032604FEB286014733E63B
:10296000D7002324C4FEB367E8002326F4FE8327A0
:1029700084FE0328C4FE3E85C28572542161828094
:10298000797122D60018232EA4FC0327C4FD232628
:10299000E4FE0327C4FE01E78147014839A003276D
:1029A000C4FE1847BA877D873A883E85C28532546F
:1029B00045618280397106DE22DC80002326A4FC7A
:1029C00081470148232CF4FC232E04FD8327C4FCFB
:1029D0002326F4FE8327C4FEDC4795CB8327C4FE61
:1029E000DC472324F4FE832784FE83A74714232295
:1029F000F4FE832744FE81CF832744FE9C43984FF7
:102A0000930784FD3E868545032544FE0297832770
:102A100084FD0328C4FD3E85C285F25062542161C5
:102A20008280797106D622D40018232EA4FC232894
:102A3000B4FC232AC4FCFD572326F4FE8327C4FDDF
:102A40002324F4FE832784FEDC4785CF832784FE7E
:102A5000DC472322F4FE832744FE83A74714232068
:102A6000F4FE832704FE91CF832704FE9C43984FF6
:102A7000930704FD3E868945032504FE029723261D
:102A8000A4FE8327C4FE3E85B25022544561828055
:102A9000011122CE00102326A4FEB71700809387D1
:102AA00087863E85724405618280011122CE001026
:102AB0002326A4FE9D473E85724405618280011154
:102AC00022CE00102326A4FEB717008093878786A6
:102AD0003E85724405618280011122CE00102326BA
:102AE000A4FE8D473E85724405618280797106D6C9
:102AF00022D40018232EA4FC232CB4FCFD5723263B
:102B0000F4FE8327C4FD2324F4FE832784FEDC47E0
:102B100085CF832784FEDC472322F4FE832744FEEF
:102B200083A7470E2320F4FE832704FE91CF83273B
:102B300004FE9C43984F930784FD3E8691450325F0
:102B400004FE02972326A4FE8327C4FE3E85B250CE
:102B5000225445618280797106D622D40018232E32
:102B6000A4FC232CB4FCFD572326F4FE8327C4FDCC
:102B70002324F4FE832784FEDC4785CF832784FE4D
:102B8000DC472322F4FE832744FE83A7470E23203D
:102B9000F4FE832704FE91CF832704FE9C43984FC5
:102BA000930784FD3E868D45032504FE0297232668
:102BB000A4FE8327C4FE3E85B25022544561828024
:102BC000797106D622D40018232EA4FC232CB4FC41
:102BD000232604FE8327C4FD2324F4FE832784FEDA
:102BE000DC4785CF832784FEDC472322F4FE83273E
:102BF00044FE83A7470E2320F4FE832704FE91CFD3
:102C0000832704FE9C43984F930784FD3E86954599
:102C1000032504FE02972326A4FE8327C4FE3E85D7
:102C2000B250225445618280797122D60018232E39
:102C3000A4FC8327C4FD2326F4FE8327C4FEDC47BF
:102C40003E85325445618280797106D622D40018BF
:102C5000232EA4FC232CB4FC232AC4FC8327C4FD0C
:102C60002326F4FE8327C4FEDC4789CF8327C4FED6
:102C7000DC47032644FD832584FD3E85EFF0DF8F8E
:102C8000AA8711A0FD573E85B2502254456182802B
:102C9000011122CE00102326A4FE2324B4FE832794
:102CA00084FE83D707008D8B99C3914711A0894774
:102CB0003E85724405618280797122D60018232EE8
:102CC000A4FCF32710342326F4FE8327C4FE3E859C
:102CD000325445618280011122CE00102326A4FEC9
:102CE0002324B4FE832784FE7390173481473E85E6
:102CF000724405618280011122CE00102326A4FEB9
:102D00008327C4FE9847B70720009107BA979C43D2
:102D10003E85724405618280011122CE0010232677
:102D2000A4FE2324B4FE8327C4FE9847B7072000DF
:102D30009107BA973E87832784FE1CC30100724423
:102D400005618280011122CE00102326A4FE2324D7
:102D5000B4FE8327C4FE9847B7072000BA973E8782
:102D6000832784FE1CC30100724405618280011127
:102D700022CE00102326A4FE2324B4FE2322C4FE68
:102D80008327C4FE9C4F85C78327C4FE9C4F3E8784
:102D9000832744FE63FDE7008327C4FE9C47032787
:102DA00084FE0A07BA973E87832744FE1CC30100AE
:102DB000724405618280797106D622D40018232ED0
:102DC000A4FC232CB4FC232AC4FCEFF08FA12326FF
:102DD000A4FE8327C4FD9C47032784FD15870A07AB
:102DE0003E978967BA979C432324F4FE832744FDCA
:102DF00081CF832784FDFD8B0547B317F7003E87FE
:102E0000832784FED98F29A8832784FDFD8B05475E
:102E1000B317F70093C7F7FF3E87832784FEF98F28
:102E20000327C4FD1847832684FD95868A06BA9633
:102E3000096736971CC30100B25022544561828055
:102E4000011106CE22CC00102326A4FE2324B4FEBA
:102E50001305C012EF10A048797106D622D40018CD
:102E6000232EA4FC232CB4FC832784FD2326F4FE0C
:102E70000325C4FE49352324A4FE8327C4FEDC4F6A
:102E80003E87832784FE63F4E7040327C4FE832779
:102E900084FEA1078A07BA979C4795CB0327C4FEF7
:102EA000832784FEA1078A07BA9703A88700032611
:102EB00084FE8326C4FE032784FEBA878607BA975A
:102EC0008E07B69783A7870ABE8532850298832529
:102ED00084FE0325C4FE89350100B25022544561A9
:102EE0008280797106D622D40018232EA4FC832771
:102EF000C4FD2324F4FE832784FE9C53639B070EAA
:102F0000832784FE9C4B2322F4FE832744FE9C43AC
:102F10009C43032544FE8297232604FE8DA0014690
:102F20008325C4FE032584FE793501468325C4FE2E
:102F3000032584FE2D3D032784FE8327C4FEA107BD
:102F40008A07BA9723A40700832684FE0327C4FEBA
:102F5000BA878607BA978E07B69723A2070A8326F1
:102F600084FE0327C4FEBA878607BA978E07B697F2
:102F700023A4070A8327C4FE85072326F4FE83279C
:102F800084FEDC4F0327C4FEE34BF7F8814503259D
:102F900084FE4D3B832744FE9C43D843832784FE15
:102FA000DC4B832684FE0146BE85032544FE029742
:102FB000832744FE9C4303A84700832784FED84B05
:102FC000832684FEB7374020138687E5BA8503251C
:102FD00044FE0298832744FE9C439847832784FE3F
:102FE000DC4BBE85032544FE0297832784FE0547FC
:102FF00098D30100B250225445618280797106D67F
:1030000022D40018232EA4FC232CB4FC232AC4FCB5
:103010002328D4FC8327C4FD2326F4FE8327C4FE83
:10302000DC4F032784FD6344F700FD5751A083273D
:1030300044FD9DCF0946832584FD0325C4FE053B41
:103040000327C4FE832784FDA1078A07BA970327B5
:1030500044FD98C78326C4FE032784FDBA878607EC
:10306000BA978E07B697032704FD23A4E70A81A029
:103070000546832584FD0325C4FED5390327C4FEF8
:10308000832784FDA1078A07BA97373740201307A3
:1030900007E498C78326C4FE032784FDBA87860702
:1030A000BA978E07B697032704FD23A2E70A814744
:1030B0003E85B250225445618280797106D622D471
:1030C0000018232EA4FC232CB4FC8327C4FD232644
:1030D000F4FE8327C4FEDC4F032784FD6344F7001E
:1030E000FD5701A80546832584FD0325C4FEE13173
:1030F00081473E85B250225445618280797106D65F
:1031000022D40018232EA4FC232CB4FC8327C4FD56
:103110002326F4FE8327C4FEDC4F032784FD63448B
:10312000F700FD5701A80146832584FD0325C4FE51
:10313000593181473E85B250225445618280797170
:1031400006D622D40018232EA4FC8327C4FD2326F0
:10315000F4FE8327C4FEDC4F9C4394438327C4FEC4
:10316000D84F8327C4FE9C53BE853A85829623247C
:10317000A4FE8327C4FE9C4F3E85EF10E007AA877C
:103180003E87832784FE93F7F7038507B357F7023B
:103190003E85B250225445618280011106CE22CC78
:1031A00000102326A4FE2324B4FE0325C4FE413FC1
:1031B000AA873E85F240624405618280797106D615
:1031C00022D40018232EA4FC8327C4FD2326F4FE5A
:1031D0008327C4FEDC4F9C4394438327C4FED84F0F
:1031E0008327C4FE9C53BE853A8582962324A4FE81
:1031F0008327C4FE9C4F3E85EF100000AA873E85C2
:10320000B250225445618280011106CE22CC0010BA
:103210002326A4FE2324B4FE0325C4FE4537AA8733
:103220003E85F240624405618280011122CE001089
:103230002326A4FE2324B4FE832784FE98478327F5
:10324000C4FE63E9E700832784FED8478327C4FED2
:103250006374F700FD5729A8832784FE98438327CA
:10326000C4FE3307F702832784FEDC43B357F7021B
:103270003E85724405618280411106C622C4000861
:10328000B7170080938747079C5B91C7B7170080EB
:103290001385470731200100B2402244410182805A
:1032A000797106D622D40018232EA4FC8327C4FDEE
:1032B0009C53D8438327C4FDDC53BA972326F4FEDE
:1032C0008327C4FDDC4389CB8327C4FDD8438327F0
:1032D000C4FD9C473E8502978327C4FE9843C1677F
:1032E000F98F91EB8327C4FE9843C177FD177D8F3B
:1032F0008327C4FE98C38327C4FDDC4F91CB83276B
:10330000C4FE9843B70702005D8F8327C4FE98C3AD
:103310008327C4FDDC4B94470327C4FD8327C4FDEA
:103320009C5BBE853A8582968327C4FDDC4789CBAA
:103330008327C4FDD8478327C4FD9C4B3E85029755
:103340000100B250225445618280397106DE22DCD0
:1033500080002326A4FC8327C4FC2326F4FE8327B5
:10336000C4FE9C539C4394438327C4FE98538327F5
:10337000C4FEDC53BE853A8582962324A4FE8327AF
:10338000C4FE9C539C4394438327C4FE98578327D1
:10339000C4FEDC57BE853A8582962322A4FE03270D
:1033A00084FEC1677D8FC167637AF7008327C4FEFF
:1033B0009C4F3E85EF005064AA87F1A8032784FE46
:1033C000B70702007D8FB70702006366F700832707
:1033D000C4FEDC4F21A08327C4FE9C4F3E85EF0036
:1033E000B0612320A4FE032784FEB70704007D8F6D
:1033F000B70704006365F700832704FE69A88327E5
:1034000084FE9D8B8507232EF4FC832784FE93F78F
:10341000073F918385078607232CF4FC032784FE4E
:103420008567938707C07D8F9307F03F63E4E700CC
:10343000FD5795A0032784FE8567938707C0F98F02
:10344000A9830547B317F700232AF4FC032704FEDA
:103450008327C4FD3347F702832784FD3307F70230
:10346000832744FDB347F7022328F4FC832744FE57
:1034700013F707109307F00F63F5E700832704FDA8
:1034800019A8032704FD832744FE93F7F703850754
:103490008607B357F7023E85F2506254216182805D
:1034A000397106DE22DC80002326A4FC2324B4FC30
:1034B000FD572326F4FEB707008093C7F7FF2324A8
:1034C000F4FE930730042322F4FEA5A0832744FED4
:1034D00013975700B75740209387C79FBA97BE8569
:1034E0000325C4FC99332320A4FE032704FEFD57C3
:1034F000630CF702032704FE832784FC1D8F935778
:10350000F7413D8FB307F740232EF4FC0327C4FD9A
:10351000832784FE635AF700832744FE2326F4FEA4
:103520008327C4FD2324F4FE832744FEFD172322B2
:10353000F4FE832744FEE3DB07F88327C4FE3E85C1
:10354000F250625421618280011122CE00102326A4
:10355000A4FE2324B4FE2322C4FE8327C4FE9C437E
:1035600013F787FF8327C4FE98C38327C4FE9843BD
:10357000832744FE9C4B9D8B5D8F8327C4FE98C39D
:103580008327C4FE9C4313F7F7C08327C4FE98C368
:103590008327C4FE9843832744FEDC4B920793F7AE
:1035A000073F5D8F8327C4FE98C38327C4FE9843DB
:1035B000FD779387F73F7D8F8327C4FE98C38327CA
:1035C000C4FE9843832744FE9C4F9396A7008567CB
:1035D000938707C0F58F5D8F8327C4FE98C3832729
:1035E00044FEDC4F63DB0702832784FE9C4313E722
:1035F0000710832784FE98C3832784FE9C4313F718
:1036000007FC832784FE98C3832784FE9C4313E72B
:103610001700832784FE98C32DA8832784FE9C432C
:1036200013F7F7EF832784FE98C3832784FE9C4318
:1036300013F707FC832784FE98C3832784FE9843EF
:10364000832744FEDC4F93F7F7035D8F832784FEC7
:1036500098C38327C4FE9843B707FCFFFD177D8FEF
:103660008327C4FE98C301008327C4FE9C43E3DD87
:1036700007FE0100724405618280397106DE22DC9A
:1036800080002326A4FC2324B4FC8327C4FC232627
:10369000F4FE8327C4FE9C53D8438327C4FEDC5327
:1036A000BA972324F4FE8327C4FE9C57D84383276C
:1036B000C4FEDC57BA972322F4FE832784FE984386
:1036C000C167F98F91CB832784FE9843C177FD179B
:1036D0007D8F832784FE98C3832784FE9843B70792
:1036E0000200F98F89C78327C4FEDC4F21A08327FE
:1036F000C4FE9C4F3E85EF0030302320A4FE0327FC
:1037000004FEBA878607BA9713D7F7410D8BBA978D
:1037100089873E87832784FC63CBE702032704FE67
:10372000BA878A07BA9713D7F7410D8BBA9789875B
:103730003E87832784FC634CF700832784FE9843ED
:10374000B70704005D8F832784FE98C3B1A083254B
:1037500084FC032504FEA933232EA4FC0327C4FD07
:10376000FD576302F7028327C4FD13975700B7572D
:1037700040209387C79FBA973E86832544FE032542
:1037800084FED93311A8832784FE9843B707040029
:103790005D8F832784FE98C3832784FE9843C16787
:1037A0005D8F832784FE98C30325C4FC793EAA87D6
:1037B0003E85F250625421618280411106C622C4C6
:1037C0000008B7170080938747079C5BBE85B71733
:1037D000008013854707EF0090240100B240224487
:1037E00041018280011122CE00102326A4FE232451
:1037F000B4FE8327C4FED843832784FEBA979C4334
:103800003E85724405618280011122CE001023267C
:10381000A4FE2324B4FE2322C4FE8327C4FED8437F
:10382000832784FEBA973E87832744FE1CC33E85C8
:10383000724405618280797122D60018232EA4FC7F
:10384000232CB4FC8327C4FD2326F4FE8327C4FE67
:103850009C4791079C43032784FD1347F7FFBA86D3
:103860000327C4FE18471107F58F1CC381473E8507
:10387000325445618280797122D60018232EA4FC2F
:103880008327C4FD2326F4FE8327C4FE9C47B1078B
:103890009C433E85325445618280797122D600185E
:1038A000232EA4FC232CB4FC8327C4FD2326F4FE82
:1038B0008327C4FE9C47A1079843832784FD832662
:1038C000C4FE9446A106D98F9CC281473E853254DE
:1038D00045618280797122D60018232EA4FC232C06
:1038E000B4FC8327C4FD2326F4FE8327C4FE9C4733
:1038F000B1079843832784FD8326C4FE9446B1060E
:10390000D98F9CC281473E8532544561828079714E
:1039100022D60018232EA4FC232CB4FC8327C4FD3C
:103920002326F4FE8327C4FE9C47B1079C4303274C
:1039300084FD1347F7FFBA860327C4FE18473107F3
:10394000F58F1CC381473E85325445618280797171
:1039500022D60018232EA4FC232CB4FC8327C4FDFC
:103960002326F4FE8327C4FE9C47B1079843832790
:1039700084FD8326C4FE9446B106B98F9CC281475C
:103980003E85325445618280797122D60018232EFB
:10399000A4FC232CB4FC232AC4FC8327C4FD2326C7
:1039A000F4FE8327C4FE9C479387C7039C430327E9
:1039B00084FD1347F7FFBA860327C4FE1847130791
:1039C000C703F58F1CC38327C4FE9C4793878703D7
:1039D0009843832744FD8326C4FE9446938686033A
:1039E000D98F9CC281473E85325445618280011146
:1039F00022CE00102326A4FE2324B4FE8327C4FE77
:103A0000DC47938707049C430327C4FE58471307EA
:103A10000704F19B1CC3832784FE9C4305476386F0
:103A2000E70289C709476381E704B1A88327C4FE79
:103A3000DC4793870704BE868327C4FEDC47938751
:103A400007043E879C421CC389A08327C4FEDC4731
:103A5000938707049C430327C4FE584713070704B2
:103A600093E717001CC315A08327C4FEDC47938788
:103A700007049C430327C4FE58471307070493E732
:103A800027001CC319A0FD5749A2832784FE83C7C2
:103A90004700858B93F7F70F91CF8327C4FEDC4750
:103AA00091079C430327C4FE5847110793E717006B
:103AB0001CC321A88327C4FEDC4791079C4303272E
:103AC000C4FE58471107F99B1CC3832784FE83C794
:103AD0004700898B93F7F70F91CF8327C4FEDC470C
:103AE00091079C430327C4FE5847110793E727001B
:103AF0001CC321A88327C4FEDC4791079C430327EE
:103B0000C4FE58471107F59B1CC3832784FE83C757
:103B10004700918B93F7F70F85C38327C4FEDC47DB
:103B2000938707049C430327C4FE584713070704E1
:103B300093E707011CC331A88327C4FEDC479387A2
:103B400007049C430327C4FE584713070704BD9B83
:103B50001CC38327C4FEDC47938707049C430327C9
:103B6000C4FE58471307070493F7F7EF1CC38327D6
:103B700084FE83C74700A18B93F7F70F81CB832780
:103B8000C4FEDC47D10723A0070001A88327C4FE99
:103B9000DC47D1073E8785471CC38327C4FEDC472B
:103BA000938707049843B7071F007D8FB707080066
:103BB0006303F7048327C4FEDC4793870704984315
:103BC0008327C4FEDC4793870704BE86B707E1FF5F
:103BD000FD17F98F9CC28327C4FEDC479387070437
:103BE00098438327C4FEDC4793870704BE86B70744
:103BF0000800D98F9CC28327C4FEDC47C1073E87DB
:103C0000832784FE9C471CC381473E85724405611F
:103C10008280397106DE22DC8000232EA4FC232C56
:103C2000B4FC232AC4FC2328D4FC2326E4FC8327E9
:103C3000C4FD2324F4FE232204FE232004FE832556
:103C400084FD032584FE65332322A4FE832744FEDE
:103C500081C7832744FEC9A0832784FEDC47E10790
:103C60003E8789471CC3232604FE45A00100832705
:103C700084FEDC47938787049C43E3CA07FE8327BF
:103C800004FD99CF8327C4FE032704FDBA9703C719
:103C90000700832784FEDC479387870498C301A825
:103CA000832784FEDC479387870423A007008327AC
:103CB00044FD1387F7FF8327C4FE6318F7008327AB
:103CC00084FEDC47E10723A007000100832784FE70
:103CD000DC479387C7049C432320F4FE832704FE1C
:103CE000E3C607FE8327C4FC81CF8327C4FE0327D6
:103CF000C4FCBA97032704FE1377F70F2380E7006D
:103D00008327C4FE85072326F4FE8327C4FE0327EA
:103D100044FDE3EDE7F481473E85F25062542161B2
:103D20008280797122D60018232EA4FC8327C4FD3B
:103D30002326F4FE8327C4FEDC4B3E8532544561C6
:103D40008280797106D622D40018232EA4FC232C5D
:103D5000B4FC8327C4FD2326F4FE032784FD8327B8
:103D6000C4FED8CB8327C4FE9C47BDC78327C4FEAF
:103D70009C479C4398438327C4FE9C473E850297FB
:103D80002324A4FE832784FD8607032784FEB347EC
:103D9000F702FD172322F4FE032744FE85676344E0
:103DA000F700FD571DA88327C4FEDC4798438327EF
:103DB000C4FEDC47BE86FD77F98F9CC28327C4FE14
:103DC000DC479843832644FE8567FD17F58F8326DD
:103DD000C4FED446D98F9CC281473E85B25022543E
:103DE00045618280797122D60018232EA4FC832796
:103DF000C4FD2326F4FE8327C4FEDC479387070512
:103E00009C430327C4FE584713070705F19B1CC3B7
:103E100001008327C4FEDC47938747079C43858BBB
:103E2000EDDB0100325445618280797106D622D4DF
:103E30000018232EA4FC8327C4FD2326F4FE0327A9
:103E4000C4FE8327C4FEDC4BBE853A85EFD03FD548
:103E50000100B250225445618280797106D622D485
:103E60000018232EA4FC232CB4FC8327C4FD232696
:103E7000F4FE8327C4FE9C479DC78327C4FE984752
:103E80000326C4FEB7474020938547DE3A85D52EEA
:103E90008327C4FE98470326C4FEB7474020938576
:103EA000A7E23A8531218327C4FE832584FD3E8520
:103EB000EFD0FFCE8327C4FE9C4F8DC78327C4FE5F
:103EC0009C4FDC4303A887018327C4FE984F8327B8
:103ED000C4FEDC4FBE868327C4FE9C533E86B68557
:103EE0003A8502980100B25022544561828079716E
:103EF00022D60018232EA4FC8327C4FD2326F4FE1B
:103F00008327C4FEDC533E8532544561828079713B
:103F100022D60018232EA4FC8327C4FD2326F4FEFA
:103F20008327C4FEDC57938707023E8532544561E0
:103F30008280011122CE00102326A4FEAE87A305A5
:103F4000F4FE01008327C4FEDC479C43E3CC07FE5C
:103F50008327C4FEDC473E878347B4FE1CC38147EA
:103F60003E85724405618280797122D60018232E25
:103F7000A4FC232CB4FCB70700802326F4FE01A880
:103F80008327C4FDDC4791079C432326F4FE832747
:103F9000C4FEE3C707FE8327C4FE13F7F70F83278A
:103FA00084FD2380E70081473E853254456182804D
:103FB000797122D60018232EA4FC8327C4FD232662
:103FC000F4FE8327C4FEDC4B3E853254456182807B
:103FD000797106D622D40018232EA4FC232CB4FC1D
:103FE0008327C4FD2326F4FE032784FD8327C4FE14
:103FF000D8CB8327C4FE9C47B5C38327C4FE9C4708
:104000009C4398438327C4FE9C473E850297232404
:10401000A4FE032784FE832784FDB347F70213879A
:10402000F7FF8327C4FEDC47E10798C38327C4FE5C
:10403000DC47A1079C430327C4FE5847210793E7A9
:1040400017001CC38327C4FEDC47B1079C4303272A
:10405000C4FE5847310793E717001CC381473E85CC
:10406000B250225445618280397106DE22DC800024
:104070002326A4FC8327C4FC2326F4FE8327C4FE46
:10408000DC47A10798438327C4FEDC47A107BE860F
:10409000B707F9FFFD17F98F9CC28327C4FEDC47E1
:1040A000A10798438327C4FEDC47A107BE86C167EA
:1040B000D98F9CC201008327C4FEDC47D1079C43F3
:1040C000858BF5DB8327C4FEDC47A1079C43898BE6
:1040D00099C3A54711A0A9472324F4FE8327C4FE52
:1040E0009C479C4398438327C4FE9C473E85029788
:1040F0002322A4FE032784FE832744FEB307F7028E
:104100003E878327C4FEDC4BB357F7022320F4FE1F
:10411000232E04FC39A001008327C4FD8507232E2C
:10412000F4FC8327C4FD032704FEE3C6E7FE010079
:10413000F250625421618280797106D622D400182F
:10414000232EA4FC8327C4FD2326F4FE0327C4FEEC
:104150008327C4FEDC4BBE853A85FD220100B250A8
:10416000225445618280797106D622D40018232E0C
:10417000A4FC232CB4FC8327C4FD2326F4FE832750
:10418000C4FE9C479DC78327C4FE98470326C4FEF0
:10419000B7474020938587063A85E5208327C4FEEC
:1041A00098470326C4FEB7474020938587133A8576
:1041B00001228327C4FE832584FD3E857122832747
:1041C000C4FE9C4F8DC78327C4FE9C4FDC4303A8CD
:1041D00087018327C4FE984F8327C4FEDC4FBE8629
:1041E0008327C4FE9C533E86B6853A85029801001B
:1041F000B250225445618280011106CE22CC0010BB
:104200002326A4FE8327C4FE9C439C430325C4FEAF
:104210008297AA873E85F240624405618280797167
:1042200006D622D40018232EA4FC232CB4FC83270A
:10423000C4FDDC4389CB8327C4FDD8438327C4FD59
:104240009C473E8502978327C4FD9C43DC4383251E
:1042500084FD0325C4FD82972326A4FE8327C4FD85
:10426000DC4789CB8327C4FDD8478327C4FD9C4BFB
:104270003E8502978327C4FE3E85B2502254456195
:104280008280011122CE00102326A4FE2324B4FE36
:104290002322C4FE8327C4FE032784FED8C38327BA
:1042A000C4FE032744FE98C7010072440561828062
:1042B000011122CE00102326A4FE2324B4FE2322C3
:1042C000C4FE8327C4FE032784FED8C78327C4FE09
:1042D000032744FE98CB01007244056182800111DE
:1042E00022CE00102326A4FE0100FDBF011106CE40
:1042F00022CC00102326A4FE2324B4FE8327C4FE70
:104300009C439C43832584FE0325C4FE8297F24090
:10431000624405618280011106CE22CC0010232662
:10432000A4FEAE87A305F4FE8327C4FE9C43D843B6
:104330008347B4FEBE850325C4FE0297AA873E8547
:10434000F240624405618280011106CE22CC001049
:104350002326A4FE2324B4FE8327C4FE9C439C4B47
:10436000832584FE0325C4FE8297AA873E85F240FA
:10437000624405618280011106CE22CC0010232602
:10438000A4FE71222A87930780051CC3FD573E8532
:10439000F240624405618280011106CE22CC0010F9
:1043A0002326A4FE2324B4FE9D222A87930780FAA5
:1043B0001CC3FD573E85F2406244056182800111B5
:1043C00022CE00102326A4FE8327C4FEFD1793B738
:1043D000170093F7F70F3E85724405618280011143
:1043E00006CE22CC00102326A4FE2324B4FE2322D2
:1043F000C4FE312A2A87930780051CC3FD573E85DA
:10440000F240624405618280011106CE22CC001088
:104410002326A4FE2324B4FE2322C4FECD282A870B
:10442000930780051CC3FD573E85F2406244056139
:104430008280797122D60018232EA4FC83A74183A1
:104440002326F4FE138741C7B747008093870700F0
:104450006314F700814725A803A741838327C4FD80
:104460003E97B747008093870700637AF70003A75A
:1044700041838327C4FD3E9723AAE18239A03747B1
:1044800000801307070023AAE1828327C4FE3E852C
:10449000325445618280797106D622D40018232EC9
:1044A000A4FC232CB4FC232AC4FC0327C4FD8547A9
:1044B0006309F700A9282A87930780051CC3FD57C5
:1044C0002DA8832784FD2324F4FE232604FE39A887
:1044D000032784FE8327C4FEBA9783C707003E855F
:1044E00039248327C4FE85072326F4FE0327C4FE50
:1044F000832744FDE36EF7FC81473E85B25022548A
:1045000045618280AA85814601460145C9A897D7A1
:10451000BF5F9387A7BA884382804111814522C437
:1045200006C62A84312A9387818388435C5D91C3C0
:10453000829722853524411197C7BFDF938787ACC7
:1045400022C417C4BFDF1304E4AB1D8C26C206C609
:104550000984BE8419E42244B240924441016FB000
:104560005FBD7D1493172400A6979C438297DDB707
:104570004111971700009387B7D122C41714000088
:10458000130414D11D8C26C24AC006C60984814476
:104590003E8963988402EFB0DFB9971700009387D4
:1045A00067CF171400001304A4CF1D8C0984814425
:1045B0003E89639F8400B2402244924402494101F3
:1045C000828093972400CA979C4385048297D1B731
:1045D00093972400CA979C4385048297D9BF9387F9
:1045E000818398432A838327871489E79307C71415
:1045F0002324F714D8437D487D556342E80493187B
:10460000270063090302338517012324C50803A883
:10461000871805463316E6003368C80023A4071937
:104620002324D51089466317D30083A6C718558E57
:1046300023A6C7180507D8C3C6978CC70145828033
:104640007971938781834ECE83A9070052CC56CAD5
:104650005AC806D622D426D24AD05EC6AA8A2E8A44
:10466000054B83A4891481C8C0401309F4FF0A04D0
:104670002694635D0900B250225492540259F249C3
:10468000624AD24A424BB24B4561828063090A00BA
:1046900083274410638547017D197114D9BFD84021
:1046A0005C407D176316270323A22401F5D783A658
:1046B000841833172B0183AB4400F98E89EE82975F
:1046C000DC40E39077FB83A78914E38797FC51BF15
:1046D00023220400E1BF83A6C41883254408758FF4
:1046E00001E756858297E9BF2E858297D1BF797100
:1046F00006D622D40018AA87A30FF4FC0347F4FDC2
:10470000A9476310F702B545B71700801385C7FFA7
:1047100019312326A4FE8327C4FE81C78327C4FE44
:1047200011A88347F4FDBE85B71700801385C7FF26
:10473000DD36AA873E85B250225445618280411100
:1047400006C622C40008F16793850720B7170080CA
:104750001385C7FF613E0100B240224441018280BF
:10476000011106CE22CC00102326A4FE0325C4FE90
:04477000EFF0FFB6B1
:104774004661696C656420746F206765742073708A
:104784006920646576696365000000000A00000022
:10479400C6254020BA264020022840202C2840204C
:1047A40056284020B8284020F22840200E294020D6
:1047B40080294020B4294020222A4020902A4020E9
:1047C400AA2A4020BE2A4020D82A4020EC2A402091
:1047D400562B4020C02B4020282C4020482C402021
:1047E400902C4020B82C4020D62C4020081D40207E
:1047F400861D4020E81D40203E1E40200000000091
:1048040000000000941E4020E22E4020FC2F402097
:10481400BA304020FC3040200000000000000000BE
:104824000000000036384020763840209A38402076
:10483400D43840200E3940204E3940208839402059
:104844005A3E4020123C4020223D4020423D402020
:1048540066414020323F4020683F4020B03F402026
:10486400D03F4020EE3E40200E3F4020A03240206A
:104874004A3340207A364020921F4020D61E4020E2
:10488400F61E4020161F40203E1F4020681F402077
:10489400C6244020CA244020CA244020CA244020E0
:1048A400C6244020CA244020CA244020CA244020D0
:1048B400C6244020CA244020CA244020CA244020C0
:1048C400CA244020C6244020C6244020C6244020B8
:1048D400C6244020C6244020C6244020C6244020AC
:1048E400C6244020C6244020C6244020C62440209C
:1048F400C6244020C6244020C6244020C62440208C
:10490400C6244020182540206A2540206A254020DE
:10491400262540206A2540206A2540206A2540201B
:10492400342540206A2540206A2540206A254020FD
:10493400422540206A2540206A2540206A254020DF
:104944006A254020502540205025402050254020F5
:1049540050254020502540205025402050254020FF
:1049640050254020502540205025402050254020EF
:1049740050254020502540205025402050254020DF
:104984005025402046274020F4274020F42740208B
:10499400F427402080274020F4274020F42740209B
:1049A400F4274020BA274020F4274020F427402051
:1049B400F4274020F4274020BA274020BA2740207B
:1049C400BA274020BA274020BA274020BA274020DF
:1049D400BA274020BA274020BA274020BA274020CF
:1049E400BA274020BA274020BA274020BA274020BF
:1049F400BA274020BA274020010000002000000010
:104A0400001BB70000366E01010000001F0000000B
:104A1400030000003F00000001000000200000002F
:104A240000366E01006CDC02030000001F00000071
:104A3400020000003F000000010000001000000020
:104A4400808D5B00001BB700000000001F00000009
:104A5400030000003F0000000100000010000000FF
:104A6400001BB70000366E01010000001F000000AB
:104A7400020000003F0000000100000010000000E0
:104A840000366E01006CDC02030000001F00000011
:104A9400020000001F0000000100000008000000E8
:104AA400808D5B00001BB700000000001F000000A9
:104AB400030000001F0000000100000008000000C7
:104AC400001BB70000366E01010000001F0000004B
:104AD400020000001F0000000100000008000000A8
:104AE40000366E01006CDC02030000001F000000B1
:104AF400020000000F00000001000000040000009C
:104B0400808D5B00001BB700000000001F00000048
:104B1400030000000F00000001000000040000007A
:104B2400001BB70000366E01010000001F000000EA
:104B3400020000000F00000001000000040000005B
:104B440000366E01006CDC02030000001F00000050
:104B54000200000007000000010000000200000045
:104B6400808D5B00001BB700000000001F000000E8
:104B7400020000000F00000001000000020000001D
:104B8400001BB70000366E01010000001F0000008A
:104B9400010000000F0000000100000002000000FE
:104BA40000366E01006CDC02030000001F000000F0
:104BB40001000000070000000200000001000000E6
:104BC400808D5B00001BB700000000001F00000088
:104BD40001000000070000000200000001000000C6
:104BE400001BB70000366E01010000001F0000002A
:104BF40001000000030000000200000001000000AA
:104C040000366E01006CDC02030000001F0000008F
:104C140003000000FFFFFFFF04000000010000008C
:104C2400808D5B00001BB700000000001F00000027
:104C34000300000000000000040000000100000068
:104C4400001BB70000366E01010000001F000000C9
:104C540003000000FFFFFFFF04000000010000004C
:104C640000366E01006CDC02030000001F0000002F
:104C740002000000FFFFFFFF06000000010000002B
:104C8400808D5B00AAC2A200000000002300000087
:104C94000100000002000000060000000100000006
:104CA400AAC2A200001BB700000000001700000009
:104CB40003000000FFFFFFFF0600000001000000EA
:104CC400001BB7000024F400010000002F000000C6
:104CD40003000000FFFFFFFF0600000001000000CA
:104CE4000024F40080A81201010000001700000055
:104CF40002000000FFFFFFFF0600000001000000AB
:104D040080A812015585450102000000230000001F
:104D140002000000FFFFFFFF080000000100000088
:104D2400808D5B00001BB700000000001F00000026
:104D340003000000FFFFFFFF080000000100000067
:104D4400001BB70000366E01010000001F000000C8
:104D540002000000FFFFFFFF080000000100000048
:104D640000366E01006CDC02030000001F0000002E
:104D740001000000FFFFFFFF0A0000000100000027
:104D8400808D5B00007C9200000000002700000082
:104D940003000000FFFFFFFF0A0000000100000005
:104DA400007C9200001BB70000000000130000000C
:104DB40002000000FFFFFFFF0A00000001000000E6
:104DC400001BB70000F824010100000027000000C8
:104DD40002000000FFFFFFFF0A00000001000000C6
:104DE40000F8240100366E010100000013000000E9
:104DF40001000000FFFFFFFF0A00000001000000A7
:104E040000366E0100F04902030000002700000094
:104E140001000000FFFFFFFF0C0000000100000084
:104E2400808D5B0000127A00000000002F0000005B
:104E340003000000FFFFFFFF0C0000000100000062
:104E440000127A00001BB7000000000017000000E9
:104E540002000000FFFFFFFF0C0000000100000043
:104E6400001BB7000024F400010000002F00000024
:104E740002000000FFFFFFFF0C0000000100000023
:104E84000024F40000366E01010000001700000049
:104E940001000000FFFFFFFF0C0000000100000004
:104EA40000366E0180C3C901030000002F0000001A
:104EB40001000000FFFFFFFF0C00000001000000E4
:104EC40080C3C9010048E801030000002F0000006E
:104ED40001000000FFFFFFFF0E00000001000000C2
:104EE400808D5B00B6A16800000000003700000060
:104EF40003000000FFFFFFFF0E00000001000000A0
:104F0400B7A16800001BB700000000001B000000F0
:104F140002000000FFFFFFFF0E0000000100000080
:104F2400001BB7006D43D1000100000037000000F2
:104F340002000000FFFFFFFF0E0000000100000060
:104F44006E43D10000366E01010000001B0000001A
:104F540001000000FFFFFFFF0E0000000100000041
:104F640000366E01DB86A20103000000370000005A
:104F740001000000FFFFFFFF10000000010000001F
:104F8400808D5B00001BB700000000001F000000C4
:104F940002000000FFFFFFFF1000000001000000FE
:104FA400001BB70000366E01010000001F00000066
:104FB40001000000FFFFFFFF1200000001000000DD
:104FC400808D5B00AAC2A200000000002300000044
:104FD40002000000FFFFFFFF1200000001000000BC
:104FE400ABC2A200001BB7000000000011000000CB
:104FF40001000000FFFFFFFF12000000010000009D
:10500400001BB70055854501010000002300000086
:1050140001000000FFFFFFFF14000000010000007A
:10502400808D5B00007C92000000000027000000DF
:1050340002000000FFFFFFFF140000000100000059
:10504400007C9200001BB700000000001300000069
:1050540001000000FFFFFFFF14000000010000003A
:10506400001BB70000F82401010000002700000025
:1050740001000000FFFFFFFF160000000100000018
:10508400808D5B00E82A8500000000002B000000F2
:1050940002000000FFFFFFFF1600000001000000F7
:1050A400E92A8500001BB70000000000150000007D
:1050B40001000000FFFFFFFF1600000001000000D8
:1050C400001BB700D1550A01010000002B000000AD
:1050D40001000000FFFFFFFF1800000001000000B6
:1050E400808D5B0000127A00000000002F00000099
:1050F40002000000FFFFFFFF180000000100000095
:1051040000127A00001BB700000000001700000026
:1051140001000000FFFFFFFF180000000100000075
:10512400001BB7000024F400010000002F00000061
:1051340001000000FFFFFFFF1A0000000100000053
:10514400808D5B0027AE700000000000330000007B
:1051540002000000FFFFFFFF1A0000000100000032
:1051640028AE7000001BB70000000000190000000A
:1051740001000000FFFFFFFF1A0000000100000013
:10518400001BB7006658E100010000003300000076
:1051940001000000FFFFFFFF1C00000001000000F1
:1051A400808D5B00B6A1680000000000370000009D
:1051B40002000000FFFFFFFF1C00000001000000D0
:1051C400B7A16800001BB700000000001B0000002E
:1051D40001000000FFFFFFFF1C00000001000000B1
:1051E400001BB7006D43D100010000003700000030
:1051F40001000000FFFFFFFF1E000000010000008F
:10520400808D5B0000A86100000000003B000000EE
:1052140002000000FFFFFFFF1E000000010000006D
:1052240000A86100001BB700000000001D00000082
:1052340001000000FFFFFFFF1E000000010000004E
:10524400001BB7000050C300010000003B00000039
:1052540001000000FFFFFFFF20000000010000002C
:10526400808D5B00001BB700000000001F000000E1
:1052740001000000FFFFFFFF8452402000000000F7
:095284006C6962676C6F737300C2
:0C52900078324020BA3740203E474020D2
:10529C0000000000EC02008054030080BC0300807E
:1052AC0000000000000000000000000000000000F2
:1052BC0000000000000000000000000000000000E2
:1052CC0000000000000000000000000000000000D2
:1052DC0000000000000000000000000000000000C2
:1052EC0000000000000000000000000000000000B2
:1052FC0000000000000000000000000000000000A2
:10530C000000000000000000000000000000000091
:10531C000000000000000000000000000000000081
:10532C000000000000000000000000000000000071
:10533C000000000000000000010000000000000060
:10534C000E33CDAB34126DE6ECDE05000B00000025
:10535C000000000000000000000000000000000041
:10536C000000000000000000000000000000000031
:10537C000000000000000000000000000000000021
:10538C000000000000000000000000000000000011
:1056CC00280400802804008030040080300400800E
:1056DC0038040080380400804004008040040080BE
:1056EC00480400804804008050040080500400806E
:1056FC00580400805804008060040080600400801E
:10570C0068040080680400807004008070040080CD
:10571C00780400807804008080040080800400807D
:10572C00880400808804008090040080900400802D
:10573C009804008098040080A0040080A0040080DD
:10574C00A8040080A8040080B0040080B00400808D
:10575C00B8040080B8040080C0040080C00400803D
:10576C00C8040080C8040080D0040080D0040080ED
:10577C00D8040080D8040080E0040080E00400809D
:10578C00E8040080E8040080F0040080F00400804D
:10579C00F8040080F80400800005008000050080FB
:1057AC0008050080080500801005008010050080A9
:1057BC001805008018050080200500802005008059
:1057CC002805008028050080300500803005008009
:1057DC0038050080380500804005008040050080B9
:1057EC004805008048050080500500805005008069
:1057FC005805008058050080600500806005008019
:10580C0068050080680500807005008070050080C8
:10581C007805008078050080800500808005008078
:10582C008805008088050080900500809005008028
:10583C009805008098050080A0050080A0050080D8
:10584C00A8050080A8050080B0050080B005008088
:10585C00B8050080B8050080C0050080C005008038
:10586C00C8050080C8050080D0050080D0050080E8
:10587C00D8050080D8050080E0050080E005008098
:10588C00E8050080E8050080F0050080F005008048
:10589C00F8050080F80500800006008000060080F6
:1058AC0008060080080600801006008010060080A4
:1058BC001806008018060080200600802006008054
:1058CC002806008028060080300600803006008004
:1058DC0038060080380600804006008040060080B4
:1058EC004806008048060080500600805006008064
:1058FC005806008058060080600600806006008014
:10590C0068060080680600807006008070060080C3
:10591C007806008078060080800600808006008073
:10592C008806008088060080900600809006008023
:10593C009806008098060080A0060080A0060080D3
:10594C00A8060080A8060080B0060080B006008083
:10595C00B8060080B8060080C0060080C006008033
:10596C00C8060080C8060080D0060080D0060080E3
:10597C00D8060080D8060080E0060080E006008093
:10598C00E8060080E8060080F0060080F006008043
:10599C00F8060080F80600800007008000070080F1
:1059AC00080700800807008010070080100700809F
:1059BC00180700801807008020070080200700804F
:1059CC0028070080280700803007008030070080FF
:1059DC0038070080380700804007008040070080AF
:1059EC00480700804807008050070080500700805F
:1059FC00580700805807008060070080600700800F
:105A0C0068070080680700807007008070070080BE
:105A1C00780700807807008080070080800700806E
:105A2C00880700808807008090070080900700801E
:105A3C009807008098070080A0070080A0070080CE
:105A4C00A8070080A8070080B0070080B00700807E
:105A5C00B8070080B8070080C0070080C00700802E
:105A6C00C8070080C8070080D0070080D0070080DE
:105A7C00D8070080D8070080E0070080E00700808E
:105A8C00E8070080E8070080F0070080F00700803E
:105A9C00F8070080F80700800008008000080080EC
:105AAC00080800800808008010080080100800809A
:105ABC00180800801808008020080080200800804A
:105ACC00C410008000000000000000000000000076
:105ADC0000000000C41000800024F400C4100080FA
:105AEC0000000000000000000000000000000000AA
:105AFC00C410008000A24A04F0474020F047402028
:105B0C00000000020000010000000000A00800805E
:105B1C00020000000300000007000000B047402016
:105B2C00B047402040420F00A00800800000000059
:105B3C0094474020944740200000000001000000E2
:105B4C000000000000000000000000000000000049
:105B5C000000000000000000000000000000000039
:105B6C000000000000000000000000000000000029
:105B7C000000000000000000000000000000000019
:105EFC000C4840200C4840200000000C000000041E
:105F0C00A00800800B000000070000001B00000030
:105F1C000000000001000000000000000000000074
:105F2C000000000000000000000000000000000065
:105F3C000000000000000000000000000000000055
:105F4C000000000000000000000000000000000045
:105F5C000000000000000000000000000000000035
:10621C002848402028484020002001100010000091
:10622C00600C008010000000070000000800000057
:10623C00090000000A0000000B0000000C00000028
:10624C000D0000000E0000000F0000001000000008
:10625C0011000000120000001300000014000000E8
:10626C00150000001600000044484020444840201F
:10627C0074100080004001100010000000000000AD
:10628C00800F00803C0000003C000000544840207F
:10629C0054484020741000800030011000100000A1
:1062AC0000000000800F00800000030000000300CD
:1062BC00600C00800100000005000000D41000807C
:1062CC0000000000000000000000000000000000C2
:1062DC00D41000804C080080A81000800000000042
:1062EC00DC10008000000000000000000000000036
:1062FC0000000000DC10008030080080A810008036
:10630C000400000074484020000000000000000061
:10631C000000000000000000704840202C1000809D
:10632C0050100080A810008008000000A810008009
:10633C000C0000000024F400CC1000800080001041
:10634C00008000000000000000000080FFFFFFFF45
:10635C0000000200F81B4020181C4020E4374020AD
:10636C00083840203E3140209A314020BC3140203A
:10637C00083240208C080080D80F00802C1500803B
:04638C00000000808D
:040000052040000097
:00000001FF
